{
  "_format": "hh-sol-artifact-1",
  "contractName": "BizarreCheckIn",
  "sourceName": "contracts/BizarreCheckIn.sol",
  "abi": [
    {
      "inputs": [
        {
          "internalType": "address",
          "name": "_bbToken",
          "type": "address"
        },
        {
          "internalType": "address",
          "name": "_gatekeeper",
          "type": "address"
        }
      ],
      "stateMutability": "nonpayable",
      "type": "constructor"
    },
    {
      "anonymous": false,
      "inputs": [
        {
          "indexed": true,
          "internalType": "address",
          "name": "user",
          "type": "address"
        },
        {
          "indexed": false,
          "internalType": "uint256",
          "name": "streak",
          "type": "uint256"
        },
        {
          "indexed": false,
          "internalType": "uint256",
          "name": "reward",
          "type": "uint256"
        },
        {
          "indexed": false,
          "internalType": "string",
          "name": "empireTier",
          "type": "string"
        }
      ],
      "name": "CheckIn",
      "type": "event"
    },
    {
      "anonymous": false,
      "inputs": [
        {
          "indexed": true,
          "internalType": "address",
          "name": "user",
          "type": "address"
        },
        {
          "indexed": false,
          "internalType": "uint256",
          "name": "cycleNumber",
          "type": "uint256"
        }
      ],
      "name": "CycleCompleted",
      "type": "event"
    },
    {
      "anonymous": false,
      "inputs": [
        {
          "indexed": true,
          "internalType": "address",
          "name": "user",
          "type": "address"
        },
        {
          "indexed": false,
          "internalType": "uint256",
          "name": "milestone",
          "type": "uint256"
        }
      ],
      "name": "MilestoneReached",
      "type": "event"
    },
    {
      "anonymous": false,
      "inputs": [
        {
          "indexed": false,
          "internalType": "address",
          "name": "account",
          "type": "address"
        }
      ],
      "name": "Paused",
      "type": "event"
    },
    {
      "anonymous": false,
      "inputs": [
        {
          "indexed": true,
          "internalType": "address",
          "name": "user",
          "type": "address"
        },
        {
          "indexed": false,
          "internalType": "uint256",
          "name": "amount",
          "type": "uint256"
        }
      ],
      "name": "RewardsClaimed",
      "type": "event"
    },
    {
      "anonymous": false,
      "inputs": [
        {
          "indexed": true,
          "internalType": "bytes32",
          "name": "role",
          "type": "bytes32"
        },
        {
          "indexed": true,
          "internalType": "bytes32",
          "name": "previousAdminRole",
          "type": "bytes32"
        },
        {
          "indexed": true,
          "internalType": "bytes32",
          "name": "newAdminRole",
          "type": "bytes32"
        }
      ],
      "name": "RoleAdminChanged",
      "type": "event"
    },
    {
      "anonymous": false,
      "inputs": [
        {
          "indexed": true,
          "internalType": "bytes32",
          "name": "role",
          "type": "bytes32"
        },
        {
          "indexed": true,
          "internalType": "address",
          "name": "account",
          "type": "address"
        },
        {
          "indexed": true,
          "internalType": "address",
          "name": "sender",
          "type": "address"
        }
      ],
      "name": "RoleGranted",
      "type": "event"
    },
    {
      "anonymous": false,
      "inputs": [
        {
          "indexed": true,
          "internalType": "bytes32",
          "name": "role",
          "type": "bytes32"
        },
        {
          "indexed": true,
          "internalType": "address",
          "name": "account",
          "type": "address"
        },
        {
          "indexed": true,
          "internalType": "address",
          "name": "sender",
          "type": "address"
        }
      ],
      "name": "RoleRevoked",
      "type": "event"
    },
    {
      "anonymous": false,
      "inputs": [
        {
          "indexed": true,
          "internalType": "address",
          "name": "user",
          "type": "address"
        },
        {
          "indexed": false,
          "internalType": "uint256",
          "name": "previousStreak",
          "type": "uint256"
        }
      ],
      "name": "StreakBroken",
      "type": "event"
    },
    {
      "anonymous": false,
      "inputs": [
        {
          "indexed": false,
          "internalType": "address",
          "name": "account",
          "type": "address"
        }
      ],
      "name": "Unpaused",
      "type": "event"
    },
    {
      "inputs": [],
      "name": "COOLDOWN_PERIOD",
      "outputs": [
        {
          "internalType": "uint256",
          "name": "",
          "type": "uint256"
        }
      ],
      "stateMutability": "view",
      "type": "function"
    },
    {
      "inputs": [],
      "name": "DEFAULT_ADMIN_ROLE",
      "outputs": [
        {
          "internalType": "bytes32",
          "name": "",
          "type": "bytes32"
        }
      ],
      "stateMutability": "view",
      "type": "function"
    },
    {
      "inputs": [],
      "name": "MAX_LEADERBOARD_SIZE",
      "outputs": [
        {
          "internalType": "uint256",
          "name": "",
          "type": "uint256"
        }
      ],
      "stateMutability": "view",
      "type": "function"
    },
    {
      "inputs": [],
      "name": "MAX_STREAK_CYCLE",
      "outputs": [
        {
          "internalType": "uint256",
          "name": "",
          "type": "uint256"
        }
      ],
      "stateMutability": "view",
      "type": "function"
    },
    {
      "inputs": [],
      "name": "STREAK_BREAK_PERIOD",
      "outputs": [
        {
          "internalType": "uint256",
          "name": "",
          "type": "uint256"
        }
      ],
      "stateMutability": "view",
      "type": "function"
    },
    {
      "inputs": [],
      "name": "UPDATER_ROLE",
      "outputs": [
        {
          "internalType": "bytes32",
          "name": "",
          "type": "bytes32"
        }
      ],
      "stateMutability": "view",
      "type": "function"
    },
    {
      "inputs": [],
      "name": "bbToken",
      "outputs": [
        {
          "internalType": "contract IERC20",
          "name": "",
          "type": "address"
        }
      ],
      "stateMutability": "view",
      "type": "function"
    },
    {
      "inputs": [
        {
          "internalType": "address",
          "name": "userAddress",
          "type": "address"
        }
      ],
      "name": "canCheckIn",
      "outputs": [
        {
          "internalType": "bool",
          "name": "",
          "type": "bool"
        }
      ],
      "stateMutability": "view",
      "type": "function"
    },
    {
      "inputs": [
        {
          "internalType": "string",
          "name": "empireTier",
          "type": "string"
        }
      ],
      "name": "checkIn",
      "outputs": [],
      "stateMutability": "nonpayable",
      "type": "function"
    },
    {
      "inputs": [],
      "name": "claimRewards",
      "outputs": [],
      "stateMutability": "nonpayable",
      "type": "function"
    },
    {
      "inputs": [
        {
          "internalType": "uint256",
          "name": "amount",
          "type": "uint256"
        }
      ],
      "name": "emergencyWithdraw",
      "outputs": [],
      "stateMutability": "nonpayable",
      "type": "function"
    },
    {
      "inputs": [],
      "name": "gatekeeper",
      "outputs": [
        {
          "internalType": "contract IRitualGatekeeper",
          "name": "",
          "type": "address"
        }
      ],
      "stateMutability": "view",
      "type": "function"
    },
    {
      "inputs": [
        {
          "internalType": "address",
          "name": "userAddress",
          "type": "address"
        }
      ],
      "name": "getClaimableRewards",
      "outputs": [
        {
          "internalType": "uint256",
          "name": "",
          "type": "uint256"
        }
      ],
      "stateMutability": "view",
      "type": "function"
    },
    {
      "inputs": [],
      "name": "getContractBalance",
      "outputs": [
        {
          "internalType": "uint256",
          "name": "",
          "type": "uint256"
        }
      ],
      "stateMutability": "view",
      "type": "function"
    },
    {
      "inputs": [
        {
          "internalType": "bytes32",
          "name": "role",
          "type": "bytes32"
        }
      ],
      "name": "getRoleAdmin",
      "outputs": [
        {
          "internalType": "bytes32",
          "name": "",
          "type": "bytes32"
        }
      ],
      "stateMutability": "view",
      "type": "function"
    },
    {
      "inputs": [
        {
          "internalType": "uint256",
          "name": "limit",
          "type": "uint256"
        }
      ],
      "name": "getTopStreaks",
      "outputs": [
        {
          "internalType": "address[]",
          "name": "",
          "type": "address[]"
        },
        {
          "internalType": "uint256[]",
          "name": "",
          "type": "uint256[]"
        }
      ],
      "stateMutability": "view",
      "type": "function"
    },
    {
      "inputs": [
        {
          "internalType": "address",
          "name": "userAddress",
          "type": "address"
        }
      ],
      "name": "getUserData",
      "outputs": [
        {
          "components": [
            {
              "internalType": "uint256",
              "name": "lastCheckIn",
              "type": "uint256"
            },
            {
              "internalType": "uint256",
              "name": "currentStreak",
              "type": "uint256"
            },
            {
              "internalType": "uint256",
              "name": "bestStreak",
              "type": "uint256"
            },
            {
              "internalType": "uint256",
              "name": "totalCheckIns",
              "type": "uint256"
            },
            {
              "internalType": "uint256",
              "name": "totalRewards",
              "type": "uint256"
            },
            {
              "internalType": "uint256",
              "name": "checkInCycles",
              "type": "uint256"
            },
            {
              "internalType": "uint256",
              "name": "pendingRewards",
              "type": "uint256"
            },
            {
              "internalType": "uint256",
              "name": "lastRewardCalculation",
              "type": "uint256"
            }
          ],
          "internalType": "struct BizarreCheckIn.UserData",
          "name": "",
          "type": "tuple"
        }
      ],
      "stateMutability": "view",
      "type": "function"
    },
    {
      "inputs": [
        {
          "internalType": "bytes32",
          "name": "role",
          "type": "bytes32"
        },
        {
          "internalType": "address",
          "name": "account",
          "type": "address"
        }
      ],
      "name": "grantRole",
      "outputs": [],
      "stateMutability": "nonpayable",
      "type": "function"
    },
    {
      "inputs": [
        {
          "internalType": "bytes32",
          "name": "role",
          "type": "bytes32"
        },
        {
          "internalType": "address",
          "name": "account",
          "type": "address"
        }
      ],
      "name": "hasRole",
      "outputs": [
        {
          "internalType": "bool",
          "name": "",
          "type": "bool"
        }
      ],
      "stateMutability": "view",
      "type": "function"
    },
    {
      "inputs": [],
      "name": "pause",
      "outputs": [],
      "stateMutability": "nonpayable",
      "type": "function"
    },
    {
      "inputs": [],
      "name": "paused",
      "outputs": [
        {
          "internalType": "bool",
          "name": "",
          "type": "bool"
        }
      ],
      "stateMutability": "view",
      "type": "function"
    },
    {
      "inputs": [
        {
          "internalType": "bytes32",
          "name": "role",
          "type": "bytes32"
        },
        {
          "internalType": "address",
          "name": "account",
          "type": "address"
        }
      ],
      "name": "renounceRole",
      "outputs": [],
      "stateMutability": "nonpayable",
      "type": "function"
    },
    {
      "inputs": [
        {
          "internalType": "bytes32",
          "name": "role",
          "type": "bytes32"
        },
        {
          "internalType": "address",
          "name": "account",
          "type": "address"
        }
      ],
      "name": "revokeRole",
      "outputs": [],
      "stateMutability": "nonpayable",
      "type": "function"
    },
    {
      "inputs": [
        {
          "internalType": "uint256",
          "name": "",
          "type": "uint256"
        }
      ],
      "name": "streakLeaders",
      "outputs": [
        {
          "internalType": "address",
          "name": "",
          "type": "address"
        }
      ],
      "stateMutability": "view",
      "type": "function"
    },
    {
      "inputs": [
        {
          "internalType": "bytes4",
          "name": "interfaceId",
          "type": "bytes4"
        }
      ],
      "name": "supportsInterface",
      "outputs": [
        {
          "internalType": "bool",
          "name": "",
          "type": "bool"
        }
      ],
      "stateMutability": "view",
      "type": "function"
    },
    {
      "inputs": [
        {
          "internalType": "string",
          "name": "",
          "type": "string"
        }
      ],
      "name": "tierDailyRewards",
      "outputs": [
        {
          "internalType": "uint256",
          "name": "",
          "type": "uint256"
        }
      ],
      "stateMutability": "view",
      "type": "function"
    },
    {
      "inputs": [
        {
          "internalType": "address",
          "name": "userAddress",
          "type": "address"
        }
      ],
      "name": "timeUntilNextCheckIn",
      "outputs": [
        {
          "internalType": "uint256",
          "name": "",
          "type": "uint256"
        }
      ],
      "stateMutability": "view",
      "type": "function"
    },
    {
      "inputs": [],
      "name": "totalCheckIns",
      "outputs": [
        {
          "internalType": "uint256",
          "name": "",
          "type": "uint256"
        }
      ],
      "stateMutability": "view",
      "type": "function"
    },
    {
      "inputs": [],
      "name": "totalRewardsDistributed",
      "outputs": [
        {
          "internalType": "uint256",
          "name": "",
          "type": "uint256"
        }
      ],
      "stateMutability": "view",
      "type": "function"
    },
    {
      "inputs": [],
      "name": "totalUniquePlayers",
      "outputs": [
        {
          "internalType": "uint256",
          "name": "",
          "type": "uint256"
        }
      ],
      "stateMutability": "view",
      "type": "function"
    },
    {
      "inputs": [],
      "name": "unpause",
      "outputs": [],
      "stateMutability": "nonpayable",
      "type": "function"
    },
    {
      "inputs": [
        {
          "internalType": "string",
          "name": "tier",
          "type": "string"
        },
        {
          "internalType": "uint256",
          "name": "reward",
          "type": "uint256"
        }
      ],
      "name": "updateTierReward",
      "outputs": [],
      "stateMutability": "nonpayable",
      "type": "function"
    },
    {
      "inputs": [
        {
          "internalType": "address",
          "name": "",
          "type": "address"
        }
      ],
      "name": "users",
      "outputs": [
        {
          "internalType": "uint256",
          "name": "lastCheckIn",
          "type": "uint256"
        },
        {
          "internalType": "uint256",
          "name": "currentStreak",
          "type": "uint256"
        },
        {
          "internalType": "uint256",
          "name": "bestStreak",
          "type": "uint256"
        },
        {
          "internalType": "uint256",
          "name": "totalCheckIns",
          "type": "uint256"
        },
        {
          "internalType": "uint256",
          "name": "totalRewards",
          "type": "uint256"
        },
        {
          "internalType": "uint256",
          "name": "checkInCycles",
          "type": "uint256"
        },
        {
          "internalType": "uint256",
          "name": "pendingRewards",
          "type": "uint256"
        },
        {
          "internalType": "uint256",
          "name": "lastRewardCalculation",
          "type": "uint256"
        }
      ],
      "stateMutability": "view",
      "type": "function"
    }
  ],
  "bytecode": "0x60c06040523480156200001157600080fd5b5060405162002482380380620024828339810160408190526200003491620002c3565b600180556002805460ff191690556001600160a01b0382166200009e5760405162461bcd60e51b815260206004820152601560248201527f496e76616c696420746f6b656e2061646472657373000000000000000000000060448201526064015b60405180910390fd5b6001600160a01b038116620000f65760405162461bcd60e51b815260206004820152601a60248201527f496e76616c696420676174656b65657065722061646472657373000000000000604482015260640162000095565b6001600160a01b03808316608052811660a0526200011660003362000205565b620001427f73e573f9566d61418a34d5de3ff49360f9c51fec37f7486551670290f6285dab3362000205565b6000600460405162000161906642495a4152524560c81b815260070190565b90815260408051918290036020018220929092556557454952444f60d01b815260046006808301829052835192839003602690810184206000908190556613d1111090531360ca1b855260078501849052855194859003602701852081905565135254d1925560d21b855284830184905285519485900382018520819055654e4f524d494560d01b8552918401929092529251918290030190205550620002fb9050565b6000828152602081815260408083206001600160a01b038516845290915290205460ff16620002a2576000828152602081815260408083206001600160a01b03851684529091529020805460ff19166001179055620002613390565b6001600160a01b0316816001600160a01b0316837f2f8788117e7eff1d82e926ec794901d17c78024a50270940304540a733656f0d60405160405180910390a45b5050565b80516001600160a01b0381168114620002be57600080fd5b919050565b60008060408385031215620002d757600080fd5b620002e283620002a6565b9150620002f260208401620002a6565b90509250929050565b60805160a05161213e620003446000396000818161039401528181610ccc01526115360152600081816104d9015281816107e00152818161091901526109e6015261213e6000f3fe608060405234801561001057600080fd5b50600436106101fb5760003560e01c80638a6091551161011a578063d8c8ec5e116100ad578063ee1725461161007c578063ee172546146104cb578063f08515fd146104d4578063f21bb4c5146104fb578063fb8968481461050e578063ffc9896b1461052157600080fd5b8063d8c8ec5e14610485578063db877142146104a6578063e04f6fb5146104ae578063ed7eb494146104c157600080fd5b8063a59c9c27116100e9578063a59c9c271461038f578063a87430ba146103b6578063b2a5317414610447578063d547741f1461047257600080fd5b80638a6091551461036257806391d148541461036b578063a217fddf1461037e578063a563eaa31461038657600080fd5b80633f4ba83a116101925780636e99d52f116101615780636e99d52f146103405780636f9fb98a1461034a5780637f6fd7e2146103525780638456cb591461035a57600080fd5b80633f4ba83a146102f357806347e63380146102fb5780635312ea8e146103225780635c975abb1461033557600080fd5b8063308e401e116101ce578063308e401e1461029957806336568abe146102c557806336f793f5146102d8578063372500ab146102eb57600080fd5b806301ffc9a71461020057806304822da914610228578063248a9ca3146102535780632f2ff15d14610284575b600080fd5b61021361020e366004611c31565b610595565b60405190151581526020015b60405180910390f35b61023b610236366004611c5b565b6105cc565b6040516001600160a01b03909116815260200161021f565b610276610261366004611c5b565b60009081526020819052604090206001015490565b60405190815260200161021f565b610297610292366004611c90565b6105f6565b005b6102766102a7366004611cbc565b6001600160a01b031660009081526003602052604090206006015490565b6102976102d3366004611c90565b610620565b6102766102e6366004611cbc565b6106a3565b610297610756565b6102976108dc565b6102767f73e573f9566d61418a34d5de3ff49360f9c51fec37f7486551670290f6285dab81565b610297610330366004611c5b565b6108f2565b60025460ff16610213565b6102766201194081565b6102766109ce565b610276601e81565b610297610a5e565b61027660075481565b610213610379366004611c90565b610a71565b610276600081565b61027660055481565b61023b7f000000000000000000000000000000000000000000000000000000000000000081565b61040c6103c4366004611cbc565b60036020528060005260406000206000915090508060000154908060010154908060020154908060030154908060040154908060050154908060060154908060070154905088565b604080519889526020890197909752958701949094526060860192909252608085015260a084015260c083015260e08201526101000161021f565b610276610455366004611ced565b805160208183018101805160048252928201919093012091525481565b610297610480366004611c90565b610a9a565b610498610493366004611c5b565b610abf565b60405161021f929190611d9e565b610276606481565b6102976104bc366004611e6b565b610c54565b61027662026ac081565b61027660065481565b61023b7f000000000000000000000000000000000000000000000000000000000000000081565b610297610509366004611eb7565b610ca7565b61021361051c366004611cbc565b611514565b61053461052f366004611cbc565b61163b565b60405161021f9190600061010082019050825182526020830151602083015260408301516040830152606083015160608301526080830151608083015260a083015160a083015260c083015160c083015260e083015160e083015292915050565b60006001600160e01b03198216637965db0b60e01b14806105c657506301ffc9a760e01b6001600160e01b03198316145b92915050565b600881815481106105dc57600080fd5b6000918252602090912001546001600160a01b0316905081565b600082815260208190526040902060010154610611816116f9565b61061b8383611703565b505050565b6001600160a01b03811633146106955760405162461bcd60e51b815260206004820152602f60248201527f416363657373436f6e74726f6c3a2063616e206f6e6c792072656e6f756e636560448201526e103937b632b9903337b91039b2b63360891b60648201526084015b60405180910390fd5b61069f8282611787565b5050565b6001600160a01b0381166000908152600360208181526040808420815161010081018352815480825260018301549482019490945260028201549281019290925292830154606082015260048301546080820152600583015460a0820152600683015460c082015260079092015460e0830152610724906201194090611f0f565b42106107335750600092915050565b80514290610745906201194090611f0f565b61074f9190611f22565b9392505050565b61075e6117ec565b610766611845565b3360009081526003602052604090206006810154806107bd5760405162461bcd60e51b81526020600482015260136024820152724e6f207265776172647320746f20636c61696d60681b604482015260640161068c565b6000600683015560405163a9059cbb60e01b8152336004820152602481018290527f00000000000000000000000000000000000000000000000000000000000000006001600160a01b03169063a9059cbb906044016020604051808303816000875af1158015610831573d6000803e3d6000fd5b505050506040513d601f19601f820116820180604052508101906108559190611f35565b61089a5760405162461bcd60e51b815260206004820152601660248201527514995dd85c99081d1c985b9cd9995c8819985a5b195960521b604482015260640161068c565b60405181815233907ffc30cddea38e2bf4d6ea7d3f9ed3b6ad7f176419f4963bd81318067a4aee73fe9060200160405180910390a250506108da60018055565b565b60006108e7816116f9565b6108ef61188b565b50565b60006108fd816116f9565b60405163a9059cbb60e01b8152336004820152602481018390527f00000000000000000000000000000000000000000000000000000000000000006001600160a01b03169063a9059cbb906044016020604051808303816000875af115801561096a573d6000803e3d6000fd5b505050506040513d601f19601f8201168201806040525081019061098e9190611f35565b61069f5760405162461bcd60e51b815260206004820152601160248201527015da5d1a191c985dd85b0819985a5b1959607a1b604482015260640161068c565b6040516370a0823160e01b81523060048201526000907f00000000000000000000000000000000000000000000000000000000000000006001600160a01b0316906370a0823190602401602060405180830381865afa158015610a35573d6000803e3d6000fd5b505050506040513d601f19601f82011682018060405250810190610a599190611f57565b905090565b6000610a69816116f9565b6108ef6118dd565b6000918252602082815260408084206001600160a01b0393909316845291905290205460ff1690565b600082815260208190526040902060010154610ab5816116f9565b61061b8383611787565b60608060006008805490508411610ad65783610ada565b6008545b905060008167ffffffffffffffff811115610af757610af7611cd7565b604051908082528060200260200182016040528015610b20578160200160208202803683370190505b50905060008267ffffffffffffffff811115610b3e57610b3e611cd7565b604051908082528060200260200182016040528015610b67578160200160208202803683370190505b50905060005b83811015610c485760088181548110610b8857610b88611f70565b9060005260206000200160009054906101000a90046001600160a01b0316838281518110610bb857610bb8611f70565b60200260200101906001600160a01b031690816001600160a01b0316815250506003600060088381548110610bef57610bef611f70565b60009182526020808320909101546001600160a01b031683528201929092526040019020600201548251839083908110610c2b57610c2b611f70565b602090810291909101015280610c4081611f86565b915050610b6d565b50909590945092505050565b7f73e573f9566d61418a34d5de3ff49360f9c51fec37f7486551670290f6285dab610c7e816116f9565b8160048585604051610c91929190611f9f565b9081526040519081900360200190205550505050565b610caf6117ec565b610cb7611845565b6040516397dfad6960e01b81523360048201527f00000000000000000000000000000000000000000000000000000000000000006001600160a01b0316906397dfad6990602401602060405180830381865afa158015610d1b573d6000803e3d6000fd5b505050506040513d601f19601f82011682018060405250810190610d3f9190611f35565b610d8b5760405162461bcd60e51b815260206004820152601860248201527f436f6d706c65746520332072697475616c732066697273740000000000000000604482015260640161068c565b3360009081526003602052604090208054610daa906201194090611f0f565b421015610df95760405162461bcd60e51b815260206004820152601f60248201527f5761697420323020686f757273206265747765656e20636865636b2d696e7300604482015260640161068c565b8060030154600003610e1b5760078054906000610e1583611f86565b91905055505b805415801590610e3957508054610e369062026ac090611f0f565b42115b15610e8057600181015460405190815233907fd68f8bb363ef5fdba4c20a512ab158332d75c7094e2e575e0309c6d4c10810769060200160405180910390a2600060018201555b600181018054906000610e9283611f86565b9091555050600381018054906000610ea983611f86565b909155505060058054906000610ebe83611f86565b9190505550600060058260010154610ed69190611faf565b158015610ee7575060008260010154115b156110ae57604080518082018252600781526642495a4152524560c81b602090910152516000907f7324578d1f803b72a37ef2f6694be1cf74b25dcf533e02c65a9b8d148121bd0490610f3d9087908790611f9f565b604051809103902003610f5b575069152d02c7e14af6800000611099565b604080518082018252600681526557454952444f60d01b602090910152517f49501ebc0a0e428b0e2c89d2b5ca6842b232d1cedb56f0646a3a4ec49a9fa56590610fa89087908790611f9f565b604051809103902003610fc65750690a968163f0a57b400000611099565b604080518082018252600781526613d1111090531360ca1b602090910152517f6db1e777210554e16b4effb71f02533a3899ef9830d70c95a46b178b9cac35f3906110149087908790611f9f565b604051809103902003611032575069054b40b1f852bda00000611099565b6040805180820182526006815265135254d1925560d21b602090910152517fde9d45a8f99687fe23df3e7c580488009914c7d16cc0b7c6e024fec05f7343239061107f9087908790611f9f565b604051809103902003611099575069010f0cf064dd592000005b80156110ac576110a98183611f0f565b91505b505b8160010154600f0361124c57604080518082018252600781526642495a4152524560c81b602090910152516000907f7324578d1f803b72a37ef2f6694be1cf74b25dcf533e02c65a9b8d148121bd049061110b9087908790611f9f565b6040518091039020036111295750692a5a058fc295ed0000006111fc565b604080518082018252600681526557454952444f60d01b602090910152517f49501ebc0a0e428b0e2c89d2b5ca6842b232d1cedb56f0646a3a4ec49a9fa565906111769087908790611f9f565b604051809103902003611194575069152d02c7e14af68000006111fc565b604080518082018252600781526613d1111090531360ca1b602090910152517f6db1e777210554e16b4effb71f02533a3899ef9830d70c95a46b178b9cac35f3906111e29087908790611f9f565b6040518091039020036111fc5750690a968163f0a57b4000005b80156112465761120c8183611f0f565b604051600f815290925033907f606c93dd9d51adef863c541a7a184bf8786670793adc7241622075b3bda7f36b9060200160405180910390a25b506113e6565b8160010154601e036113e657604080518082018252600781526642495a4152524560c81b602090910152516000907f7324578d1f803b72a37ef2f6694be1cf74b25dcf533e02c65a9b8d148121bd04906112a99087908790611f9f565b6040518091039020036112c757506954b40b1f852bda00000061139a565b604080518082018252600681526557454952444f60d01b602090910152517f49501ebc0a0e428b0e2c89d2b5ca6842b232d1cedb56f0646a3a4ec49a9fa565906113149087908790611f9f565b6040518091039020036113325750692a5a058fc295ed00000061139a565b604080518082018252600781526613d1111090531360ca1b602090910152517f6db1e777210554e16b4effb71f02533a3899ef9830d70c95a46b178b9cac35f3906113809087908790611f9f565b60405180910390200361139a575069152d02c7e14af68000005b80156113e4576113aa8183611f0f565b604051601e815290925033907f606c93dd9d51adef863c541a7a184bf8786670793adc7241622075b3bda7f36b9060200160405180910390a25b505b601e82600101541061144b5760058201805490600061140483611f86565b909155505060006001830155600582015460405190815233907f7a22242c42d1e94f110cb053b2cf343580c736816a22ac54ec7dd833bf0dbe639060200160405180910390a25b81600201548260010154111561146e576001820154600283015561146e3361191a565b808260060160008282546114829190611f0f565b925050819055508082600401600082825461149d9190611f0f565b9091555050428083556007830155600680548291906000906114c0908490611f0f565b9091555050600182015460405133917f4591ebce88ab6ad2d1f7c2faadd7a558310d80d870369fca2e22cf424730caab916115019190859089908990611fd1565b60405180910390a2505061069f60018055565b6040516397dfad6960e01b81526001600160a01b0382811660048301526000917f0000000000000000000000000000000000000000000000000000000000000000909116906397dfad6990602401602060405180830381865afa15801561157f573d6000803e3d6000fd5b505050506040513d601f19601f820116820180604052508101906115a39190611f35565b6115af57506000919050565b6001600160a01b038216600090815260036020818152604092839020835161010081018552815480825260018301549382019390935260028201549481019490945291820154606084015260048201546080840152600582015460a0840152600682015460c084015260079091015460e0830152611631906201194090611f0f565b4210159392505050565b61168360405180610100016040528060008152602001600081526020016000815260200160008152602001600081526020016000815260200160008152602001600081525090565b506001600160a01b03166000908152600360208181526040928390208351610100810185528154815260018201549281019290925260028101549382019390935290820154606082015260048201546080820152600582015460a0820152600682015460c082015260079091015460e082015290565b6108ef81336119e1565b61170d8282610a71565b61069f576000828152602081815260408083206001600160a01b03851684529091529020805460ff191660011790556117433390565b6001600160a01b0316816001600160a01b0316837f2f8788117e7eff1d82e926ec794901d17c78024a50270940304540a733656f0d60405160405180910390a45050565b6117918282610a71565b1561069f576000828152602081815260408083206001600160a01b0385168085529252808320805460ff1916905551339285917ff6391f5c32d9c69d2a47ea670b442974b53935d1edc7fd64eb21e047a839171b9190a45050565b60026001540361183e5760405162461bcd60e51b815260206004820152601f60248201527f5265656e7472616e637947756172643a207265656e7472616e742063616c6c00604482015260640161068c565b6002600155565b60025460ff16156108da5760405162461bcd60e51b815260206004820152601060248201526f14185d5cd8589b194e881c185d5cd95960821b604482015260640161068c565b611893611a3a565b6002805460ff191690557f5db9ee0a495bf2e6ff9c91a7834c1ba4fdd244a5e8aa4e537bd38aeae4b073aa335b6040516001600160a01b03909116815260200160405180910390a1565b6118e5611845565b6002805460ff191660011790557f62e78cea01bee320cd4e420270b5ea74000d11b0c9f74754ebdbfc544b05a2586118c03390565b6000805b60085481101561197a57826001600160a01b03166008828154811061194557611945611f70565b6000918252602090912001546001600160a01b031603611968576001915061197a565b8061197281611f86565b91505061191e565b508015801561198b57506008546064115b1561069f57600880546001810182556000919091527ff3f7a9fe364faab93b216da50a3214154f22a0a2b415b23a84c8169e8b636ee30180546001600160a01b0384166001600160a01b03199091161790555050565b6119eb8282610a71565b61069f576119f881611a83565b611a03836020611a95565b604051602001611a14929190612032565b60408051601f198184030181529082905262461bcd60e51b825261068c916004016120a7565b60025460ff166108da5760405162461bcd60e51b815260206004820152601460248201527314185d5cd8589b194e881b9bdd081c185d5cd95960621b604482015260640161068c565b60606105c66001600160a01b03831660145b60606000611aa48360026120da565b611aaf906002611f0f565b67ffffffffffffffff811115611ac757611ac7611cd7565b6040519080825280601f01601f191660200182016040528015611af1576020820181803683370190505b509050600360fc1b81600081518110611b0c57611b0c611f70565b60200101906001600160f81b031916908160001a905350600f60fb1b81600181518110611b3b57611b3b611f70565b60200101906001600160f81b031916908160001a9053506000611b5f8460026120da565b611b6a906001611f0f565b90505b6001811115611be2576f181899199a1a9b1b9c1cb0b131b232b360811b85600f1660108110611b9e57611b9e611f70565b1a60f81b828281518110611bb457611bb4611f70565b60200101906001600160f81b031916908160001a90535060049490941c93611bdb816120f1565b9050611b6d565b50831561074f5760405162461bcd60e51b815260206004820181905260248201527f537472696e67733a20686578206c656e67746820696e73756666696369656e74604482015260640161068c565b600060208284031215611c4357600080fd5b81356001600160e01b03198116811461074f57600080fd5b600060208284031215611c6d57600080fd5b5035919050565b80356001600160a01b0381168114611c8b57600080fd5b919050565b60008060408385031215611ca357600080fd5b82359150611cb360208401611c74565b90509250929050565b600060208284031215611cce57600080fd5b61074f82611c74565b634e487b7160e01b600052604160045260246000fd5b600060208284031215611cff57600080fd5b813567ffffffffffffffff80821115611d1757600080fd5b818401915084601f830112611d2b57600080fd5b813581811115611d3d57611d3d611cd7565b604051601f8201601f19908116603f01168101908382118183101715611d6557611d65611cd7565b81604052828152876020848701011115611d7e57600080fd5b826020860160208301376000928101602001929092525095945050505050565b604080825283519082018190526000906020906060840190828701845b82811015611de05781516001600160a01b031684529284019290840190600101611dbb565b5050508381038285015284518082528583019183019060005b81811015611e1557835183529284019291840191600101611df9565b5090979650505050505050565b60008083601f840112611e3457600080fd5b50813567ffffffffffffffff811115611e4c57600080fd5b602083019150836020828501011115611e6457600080fd5b9250929050565b600080600060408486031215611e8057600080fd5b833567ffffffffffffffff811115611e9757600080fd5b611ea386828701611e22565b909790965060209590950135949350505050565b60008060208385031215611eca57600080fd5b823567ffffffffffffffff811115611ee157600080fd5b611eed85828601611e22565b90969095509350505050565b634e487b7160e01b600052601160045260246000fd5b808201808211156105c6576105c6611ef9565b818103818111156105c6576105c6611ef9565b600060208284031215611f4757600080fd5b8151801515811461074f57600080fd5b600060208284031215611f6957600080fd5b5051919050565b634e487b7160e01b600052603260045260246000fd5b600060018201611f9857611f98611ef9565b5060010190565b8183823760009101908152919050565b600082611fcc57634e487b7160e01b600052601260045260246000fd5b500690565b84815283602082015260606040820152816060820152818360808301376000818301608090810191909152601f909201601f191601019392505050565b60005b83811015612029578181015183820152602001612011565b50506000910152565b7f416363657373436f6e74726f6c3a206163636f756e742000000000000000000081526000835161206a81601785016020880161200e565b7001034b99036b4b9b9b4b733903937b6329607d1b601791840191820152835161209b81602884016020880161200e565b01602801949350505050565b60208152600082518060208401526120c681604085016020870161200e565b601f01601f19169190910160400192915050565b80820281158282048414176105c6576105c6611ef9565b60008161210057612100611ef9565b50600019019056fea2646970667358221220da78cfd724776f9f1337225bab624a640a455def0523c332d90d19d72b227ae264736f6c63430008140033",
  "linkReferences": {},
  "deployedLinkReferences": {}
}