{
  "_format": "hh-sol-artifact-1",
  "contractName": "RitualGatekeeper",
  "sourceName": "contracts/RitualGatekeeper.sol",
  "abi": [
    {
      "inputs": [],
      "stateMutability": "nonpayable",
      "type": "constructor"
    },
    {
      "anonymous": false,
      "inputs": [
        {
          "indexed": false,
          "internalType": "address",
          "name": "account",
          "type": "address"
        }
      ],
      "name": "Paused",
      "type": "event"
    },
    {
      "anonymous": false,
      "inputs": [
        {
          "indexed": true,
          "internalType": "address",
          "name": "user",
          "type": "address"
        },
        {
          "indexed": false,
          "internalType": "uint256",
          "name": "newTotal",
          "type": "uint256"
        }
      ],
      "name": "RitualCompleted",
      "type": "event"
    },
    {
      "anonymous": false,
      "inputs": [
        {
          "indexed": true,
          "internalType": "bytes32",
          "name": "role",
          "type": "bytes32"
        },
        {
          "indexed": true,
          "internalType": "bytes32",
          "name": "previousAdminRole",
          "type": "bytes32"
        },
        {
          "indexed": true,
          "internalType": "bytes32",
          "name": "newAdminRole",
          "type": "bytes32"
        }
      ],
      "name": "RoleAdminChanged",
      "type": "event"
    },
    {
      "anonymous": false,
      "inputs": [
        {
          "indexed": true,
          "internalType": "bytes32",
          "name": "role",
          "type": "bytes32"
        },
        {
          "indexed": true,
          "internalType": "address",
          "name": "account",
          "type": "address"
        },
        {
          "indexed": true,
          "internalType": "address",
          "name": "sender",
          "type": "address"
        }
      ],
      "name": "RoleGranted",
      "type": "event"
    },
    {
      "anonymous": false,
      "inputs": [
        {
          "indexed": true,
          "internalType": "bytes32",
          "name": "role",
          "type": "bytes32"
        },
        {
          "indexed": true,
          "internalType": "address",
          "name": "account",
          "type": "address"
        },
        {
          "indexed": true,
          "internalType": "address",
          "name": "sender",
          "type": "address"
        }
      ],
      "name": "RoleRevoked",
      "type": "event"
    },
    {
      "anonymous": false,
      "inputs": [
        {
          "indexed": false,
          "internalType": "address",
          "name": "account",
          "type": "address"
        }
      ],
      "name": "Unpaused",
      "type": "event"
    },
    {
      "anonymous": false,
      "inputs": [
        {
          "indexed": true,
          "internalType": "address",
          "name": "user",
          "type": "address"
        },
        {
          "indexed": false,
          "internalType": "uint256",
          "name": "ritualsCompleted",
          "type": "uint256"
        }
      ],
      "name": "UserUnlocked",
      "type": "event"
    },
    {
      "inputs": [],
      "name": "DEFAULT_ADMIN_ROLE",
      "outputs": [
        {
          "internalType": "bytes32",
          "name": "",
          "type": "bytes32"
        }
      ],
      "stateMutability": "view",
      "type": "function"
    },
    {
      "inputs": [],
      "name": "RITUAL_THRESHOLD",
      "outputs": [
        {
          "internalType": "uint256",
          "name": "",
          "type": "uint256"
        }
      ],
      "stateMutability": "view",
      "type": "function"
    },
    {
      "inputs": [],
      "name": "RITUAL_VERIFIER_ROLE",
      "outputs": [
        {
          "internalType": "bytes32",
          "name": "",
          "type": "bytes32"
        }
      ],
      "stateMutability": "view",
      "type": "function"
    },
    {
      "inputs": [
        {
          "internalType": "address[]",
          "name": "userList",
          "type": "address[]"
        }
      ],
      "name": "batchCanCheckIn",
      "outputs": [
        {
          "internalType": "bool[]",
          "name": "",
          "type": "bool[]"
        }
      ],
      "stateMutability": "view",
      "type": "function"
    },
    {
      "inputs": [
        {
          "internalType": "address",
          "name": "user",
          "type": "address"
        }
      ],
      "name": "canUserCheckIn",
      "outputs": [
        {
          "internalType": "bool",
          "name": "",
          "type": "bool"
        }
      ],
      "stateMutability": "view",
      "type": "function"
    },
    {
      "inputs": [
        {
          "internalType": "address",
          "name": "user",
          "type": "address"
        }
      ],
      "name": "forceUnlock",
      "outputs": [],
      "stateMutability": "nonpayable",
      "type": "function"
    },
    {
      "inputs": [
        {
          "internalType": "bytes32",
          "name": "role",
          "type": "bytes32"
        }
      ],
      "name": "getRoleAdmin",
      "outputs": [
        {
          "internalType": "bytes32",
          "name": "",
          "type": "bytes32"
        }
      ],
      "stateMutability": "view",
      "type": "function"
    },
    {
      "inputs": [
        {
          "internalType": "address",
          "name": "user",
          "type": "address"
        }
      ],
      "name": "getUserStatus",
      "outputs": [
        {
          "components": [
            {
              "internalType": "bool",
              "name": "canCheckIn",
              "type": "bool"
            },
            {
              "internalType": "uint256",
              "name": "ritualsCompleted",
              "type": "uint256"
            },
            {
              "internalType": "uint256",
              "name": "unlockTimestamp",
              "type": "uint256"
            },
            {
              "internalType": "uint256",
              "name": "totalRitualsEver",
              "type": "uint256"
            }
          ],
          "internalType": "struct RitualGatekeeper.UserStatus",
          "name": "",
          "type": "tuple"
        }
      ],
      "stateMutability": "view",
      "type": "function"
    },
    {
      "inputs": [
        {
          "internalType": "bytes32",
          "name": "role",
          "type": "bytes32"
        },
        {
          "internalType": "address",
          "name": "account",
          "type": "address"
        }
      ],
      "name": "grantRole",
      "outputs": [],
      "stateMutability": "nonpayable",
      "type": "function"
    },
    {
      "inputs": [
        {
          "internalType": "bytes32",
          "name": "role",
          "type": "bytes32"
        },
        {
          "internalType": "address",
          "name": "account",
          "type": "address"
        }
      ],
      "name": "hasRole",
      "outputs": [
        {
          "internalType": "bool",
          "name": "",
          "type": "bool"
        }
      ],
      "stateMutability": "view",
      "type": "function"
    },
    {
      "inputs": [],
      "name": "pause",
      "outputs": [],
      "stateMutability": "nonpayable",
      "type": "function"
    },
    {
      "inputs": [],
      "name": "paused",
      "outputs": [
        {
          "internalType": "bool",
          "name": "",
          "type": "bool"
        }
      ],
      "stateMutability": "view",
      "type": "function"
    },
    {
      "inputs": [
        {
          "internalType": "bytes32",
          "name": "role",
          "type": "bytes32"
        },
        {
          "internalType": "address",
          "name": "account",
          "type": "address"
        }
      ],
      "name": "renounceRole",
      "outputs": [],
      "stateMutability": "nonpayable",
      "type": "function"
    },
    {
      "inputs": [
        {
          "internalType": "bytes32",
          "name": "role",
          "type": "bytes32"
        },
        {
          "internalType": "address",
          "name": "account",
          "type": "address"
        }
      ],
      "name": "revokeRole",
      "outputs": [],
      "stateMutability": "nonpayable",
      "type": "function"
    },
    {
      "inputs": [
        {
          "internalType": "bytes4",
          "name": "interfaceId",
          "type": "bytes4"
        }
      ],
      "name": "supportsInterface",
      "outputs": [
        {
          "internalType": "bool",
          "name": "",
          "type": "bool"
        }
      ],
      "stateMutability": "view",
      "type": "function"
    },
    {
      "inputs": [],
      "name": "totalUsersUnlocked",
      "outputs": [
        {
          "internalType": "uint256",
          "name": "",
          "type": "uint256"
        }
      ],
      "stateMutability": "view",
      "type": "function"
    },
    {
      "inputs": [
        {
          "internalType": "address",
          "name": "user",
          "type": "address"
        },
        {
          "internalType": "uint256",
          "name": "ritualsCompleted",
          "type": "uint256"
        }
      ],
      "name": "unlockCheckIn",
      "outputs": [],
      "stateMutability": "nonpayable",
      "type": "function"
    },
    {
      "inputs": [],
      "name": "unpause",
      "outputs": [],
      "stateMutability": "nonpayable",
      "type": "function"
    },
    {
      "inputs": [
        {
          "internalType": "address",
          "name": "user",
          "type": "address"
        },
        {
          "internalType": "uint256",
          "name": "ritualsToday",
          "type": "uint256"
        }
      ],
      "name": "updateRitualCount",
      "outputs": [],
      "stateMutability": "nonpayable",
      "type": "function"
    },
    {
      "inputs": [
        {
          "internalType": "address",
          "name": "",
          "type": "address"
        }
      ],
      "name": "users",
      "outputs": [
        {
          "internalType": "bool",
          "name": "canCheckIn",
          "type": "bool"
        },
        {
          "internalType": "uint256",
          "name": "ritualsCompleted",
          "type": "uint256"
        },
        {
          "internalType": "uint256",
          "name": "unlockTimestamp",
          "type": "uint256"
        },
        {
          "internalType": "uint256",
          "name": "totalRitualsEver",
          "type": "uint256"
        }
      ],
      "stateMutability": "view",
      "type": "function"
    }
  ],
  "bytecode": "0x608060405234801561001057600080fd5b506001805460ff19169055610026600033610055565b6100507fb475b84cf09488b4de711187947df01c2db52707275427cd397499899b79b2b333610055565b6100f4565b6000828152602081815260408083206001600160a01b038516845290915290205460ff166100f0576000828152602081815260408083206001600160a01b03851684529091529020805460ff191660011790556100af3390565b6001600160a01b0316816001600160a01b0316837f2f8788117e7eff1d82e926ec794901d17c78024a50270940304540a733656f0d60405160405180910390a45b5050565b611091806101036000396000f3fe608060405234801561001057600080fd5b506004361061012c5760003560e01c806391d14854116100ad578063a87430ba11610071578063a87430ba14610272578063d547741f146102cf578063d66b16fa146102e2578063e1e0ba0414610302578063ea0d5dcd1461031557600080fd5b806391d1485414610205578063928dc5351461021857806397dfad691461022b5780639f7cacfa14610257578063a217fddf1461026a57600080fd5b80633f4ba83a116100f45780633f4ba83a146101ba5780634a3192b8146101c25780635c975abb146101e95780635f0a2be3146101f45780638456cb59146101fd57600080fd5b806301ffc9a7146101315780631cef887114610159578063248a9ca31461016f5780632f2ff15d1461019257806336568abe146101a7575b600080fd5b61014461013f366004610d68565b61035d565b60405190151581526020015b60405180910390f35b610161600381565b604051908152602001610150565b61016161017d366004610d92565b60009081526020819052604090206001015490565b6101a56101a0366004610dc7565b610394565b005b6101a56101b5366004610dc7565b6103be565b6101a5610441565b6101617fb475b84cf09488b4de711187947df01c2db52707275427cd397499899b79b2b381565b60015460ff16610144565b61016160035481565b6101a5610457565b610144610213366004610dc7565b61046a565b6101a5610226366004610df3565b610493565b610144610239366004610e1d565b6001600160a01b031660009081526002602052604090205460ff1690565b6101a5610265366004610df3565b6105ff565b610161600081565b6102ad610280366004610e1d565b6002602081905260009182526040909120805460018201549282015460039092015460ff90911692919084565b6040805194151585526020850193909352918301526060820152608001610150565b6101a56102dd366004610dc7565b61071b565b6102f56102f0366004610e38565b610740565b6040516101509190610ead565b6101a5610310366004610e1d565b61081d565b610328610323366004610e1d565b6108cc565b604051610150919081511515815260208083015190820152604080830151908201526060918201519181019190915260800190565b60006001600160e01b03198216637965db0b60e01b148061038e57506301ffc9a760e01b6001600160e01b03198316145b92915050565b6000828152602081905260409020600101546103af81610949565b6103b98383610953565b505050565b6001600160a01b03811633146104335760405162461bcd60e51b815260206004820152602f60248201527f416363657373436f6e74726f6c3a2063616e206f6e6c792072656e6f756e636560448201526e103937b632b9903337b91039b2b63360891b60648201526084015b60405180910390fd5b61043d82826109d7565b5050565b600061044c81610949565b610454610a3c565b50565b600061046281610949565b610454610a8e565b6000918252602082815260408084206001600160a01b0393909316845291905290205460ff1690565b7fb475b84cf09488b4de711187947df01c2db52707275427cd397499899b79b2b36104bd81610949565b6104c5610ac9565b6001600160a01b03831660009081526002602052604081206001810184905560030180548492906104f7908490610f09565b90915550506001600160a01b0383166000818152600260209081526040918290206003015491519182527f6aeaa320f76b13792a0df7c7650f1756ab4413bc77a6ee1bab66397ea8e2e8a8910160405180910390a26003821015801561057657506001600160a01b03831660009081526002602052604090205460ff16155b156103b9576001600160a01b03831660009081526002602081905260408220805460ff191660011781554291015560038054916105b283610f1c565b9190505550826001600160a01b03167fb9d80cd4e49fc0a992bb018917ea4cee25f8eecad49b1a2271c4777ad6827f13836040516105f291815260200190565b60405180910390a2505050565b7fb475b84cf09488b4de711187947df01c2db52707275427cd397499899b79b2b361062981610949565b610631610ac9565b60038210156106775760405162461bcd60e51b81526020600482015260126024820152714e6f7420656e6f7567682072697475616c7360701b604482015260640161042a565b6001600160a01b03831660009081526002602052604090205460ff16156106d35760405162461bcd60e51b815260206004820152601060248201526f105b1c9958591e481d5b9b1bd8dad95960821b604482015260640161042a565b6001600160a01b03831660009081526002602081905260408220805460ff1916600190811782558101859055429181019190915560039081018490558054916105b283610f1c565b60008281526020819052604090206001015461073681610949565b6103b983836109d7565b606060008267ffffffffffffffff81111561075d5761075d610f35565b604051908082528060200260200182016040528015610786578160200160208202803683370190505b50905060005b8381101561081557600260008686848181106107aa576107aa610f4b565b90506020020160208101906107bf9190610e1d565b6001600160a01b03168152602081019190915260400160002054825160ff909116908390839081106107f3576107f3610f4b565b911515602092830291909101909101528061080d81610f1c565b91505061078c565b509392505050565b600061082881610949565b6001600160a01b03821660009081526002602052604090205460ff1661043d576001600160a01b03821660009081526002602081905260408220805460ff1916600117815542910155600380549161087f83610f1c565b9190505550816001600160a01b03167fb9d80cd4e49fc0a992bb018917ea4cee25f8eecad49b1a2271c4777ad6827f1360036040516108c091815260200190565b60405180910390a25050565b6108f960405180608001604052806000151581526020016000815260200160008152602001600081525090565b506001600160a01b03166000908152600260208181526040928390208351608081018552815460ff1615158152600182015492810192909252918201549281019290925260030154606082015290565b6104548133610b11565b61095d828261046a565b61043d576000828152602081815260408083206001600160a01b03851684529091529020805460ff191660011790556109933390565b6001600160a01b0316816001600160a01b0316837f2f8788117e7eff1d82e926ec794901d17c78024a50270940304540a733656f0d60405160405180910390a45050565b6109e1828261046a565b1561043d576000828152602081815260408083206001600160a01b0385168085529252808320805460ff1916905551339285917ff6391f5c32d9c69d2a47ea670b442974b53935d1edc7fd64eb21e047a839171b9190a45050565b610a44610b6a565b6001805460ff191690557f5db9ee0a495bf2e6ff9c91a7834c1ba4fdd244a5e8aa4e537bd38aeae4b073aa335b6040516001600160a01b03909116815260200160405180910390a1565b610a96610ac9565b6001805460ff1916811790557f62e78cea01bee320cd4e420270b5ea74000d11b0c9f74754ebdbfc544b05a25833610a71565b60015460ff1615610b0f5760405162461bcd60e51b815260206004820152601060248201526f14185d5cd8589b194e881c185d5cd95960821b604482015260640161042a565b565b610b1b828261046a565b61043d57610b2881610bb3565b610b33836020610bc5565b604051602001610b44929190610f85565b60408051601f198184030181529082905262461bcd60e51b825261042a91600401610ffa565b60015460ff16610b0f5760405162461bcd60e51b815260206004820152601460248201527314185d5cd8589b194e881b9bdd081c185d5cd95960621b604482015260640161042a565b606061038e6001600160a01b03831660145b60606000610bd483600261102d565b610bdf906002610f09565b67ffffffffffffffff811115610bf757610bf7610f35565b6040519080825280601f01601f191660200182016040528015610c21576020820181803683370190505b509050600360fc1b81600081518110610c3c57610c3c610f4b565b60200101906001600160f81b031916908160001a905350600f60fb1b81600181518110610c6b57610c6b610f4b565b60200101906001600160f81b031916908160001a9053506000610c8f84600261102d565b610c9a906001610f09565b90505b6001811115610d12576f181899199a1a9b1b9c1cb0b131b232b360811b85600f1660108110610cce57610cce610f4b565b1a60f81b828281518110610ce457610ce4610f4b565b60200101906001600160f81b031916908160001a90535060049490941c93610d0b81611044565b9050610c9d565b508315610d615760405162461bcd60e51b815260206004820181905260248201527f537472696e67733a20686578206c656e67746820696e73756666696369656e74604482015260640161042a565b9392505050565b600060208284031215610d7a57600080fd5b81356001600160e01b031981168114610d6157600080fd5b600060208284031215610da457600080fd5b5035919050565b80356001600160a01b0381168114610dc257600080fd5b919050565b60008060408385031215610dda57600080fd5b82359150610dea60208401610dab565b90509250929050565b60008060408385031215610e0657600080fd5b610e0f83610dab565b946020939093013593505050565b600060208284031215610e2f57600080fd5b610d6182610dab565b60008060208385031215610e4b57600080fd5b823567ffffffffffffffff80821115610e6357600080fd5b818501915085601f830112610e7757600080fd5b813581811115610e8657600080fd5b8660208260051b8501011115610e9b57600080fd5b60209290920196919550909350505050565b6020808252825182820181905260009190848201906040850190845b81811015610ee7578351151583529284019291840191600101610ec9565b50909695505050505050565b634e487b7160e01b600052601160045260246000fd5b8082018082111561038e5761038e610ef3565b600060018201610f2e57610f2e610ef3565b5060010190565b634e487b7160e01b600052604160045260246000fd5b634e487b7160e01b600052603260045260246000fd5b60005b83811015610f7c578181015183820152602001610f64565b50506000910152565b7f416363657373436f6e74726f6c3a206163636f756e7420000000000000000000815260008351610fbd816017850160208801610f61565b7001034b99036b4b9b9b4b733903937b6329607d1b6017918401918201528351610fee816028840160208801610f61565b01602801949350505050565b6020815260008251806020840152611019816040850160208701610f61565b601f01601f19169190910160400192915050565b808202811582820484141761038e5761038e610ef3565b60008161105357611053610ef3565b50600019019056fea2646970667358221220eccb2da3a627706e8d8b1ead38600dad3e9694cd687c9c531a035aaf3a7aca7964736f6c63430008140033",
  "linkReferences": {},
  "deployedLinkReferences": {}
}