{
  "_format": "hh-sol-artifact-1",
  "contractName": "TestBBToken",
  "sourceName": "contracts/TestBBToken.sol",
  "abi": [
    {
      "inputs": [],
      "stateMutability": "nonpayable",
      "type": "constructor"
    },
    {
      "anonymous": false,
      "inputs": [
        {
          "indexed": true,
          "internalType": "address",
          "name": "owner",
          "type": "address"
        },
        {
          "indexed": true,
          "internalType": "address",
          "name": "spender",
          "type": "address"
        },
        {
          "indexed": false,
          "internalType": "uint256",
          "name": "value",
          "type": "uint256"
        }
      ],
      "name": "Approval",
      "type": "event"
    },
    {
      "anonymous": false,
      "inputs": [
        {
          "indexed": true,
          "internalType": "address",
          "name": "previousOwner",
          "type": "address"
        },
        {
          "indexed": true,
          "internalType": "address",
          "name": "newOwner",
          "type": "address"
        }
      ],
      "name": "OwnershipTransferred",
      "type": "event"
    },
    {
      "anonymous": false,
      "inputs": [
        {
          "indexed": true,
          "internalType": "address",
          "name": "from",
          "type": "address"
        },
        {
          "indexed": true,
          "internalType": "address",
          "name": "to",
          "type": "address"
        },
        {
          "indexed": false,
          "internalType": "uint256",
          "name": "value",
          "type": "uint256"
        }
      ],
      "name": "Transfer",
      "type": "event"
    },
    {
      "inputs": [],
      "name": "FAUCET_AMOUNT",
      "outputs": [
        {
          "internalType": "uint256",
          "name": "",
          "type": "uint256"
        }
      ],
      "stateMutability": "view",
      "type": "function"
    },
    {
      "inputs": [],
      "name": "FAUCET_COOLDOWN",
      "outputs": [
        {
          "internalType": "uint256",
          "name": "",
          "type": "uint256"
        }
      ],
      "stateMutability": "view",
      "type": "function"
    },
    {
      "inputs": [
        {
          "internalType": "address",
          "name": "owner",
          "type": "address"
        },
        {
          "internalType": "address",
          "name": "spender",
          "type": "address"
        }
      ],
      "name": "allowance",
      "outputs": [
        {
          "internalType": "uint256",
          "name": "",
          "type": "uint256"
        }
      ],
      "stateMutability": "view",
      "type": "function"
    },
    {
      "inputs": [
        {
          "internalType": "address",
          "name": "spender",
          "type": "address"
        },
        {
          "internalType": "uint256",
          "name": "amount",
          "type": "uint256"
        }
      ],
      "name": "approve",
      "outputs": [
        {
          "internalType": "bool",
          "name": "",
          "type": "bool"
        }
      ],
      "stateMutability": "nonpayable",
      "type": "function"
    },
    {
      "inputs": [
        {
          "internalType": "address",
          "name": "account",
          "type": "address"
        }
      ],
      "name": "balanceOf",
      "outputs": [
        {
          "internalType": "uint256",
          "name": "",
          "type": "uint256"
        }
      ],
      "stateMutability": "view",
      "type": "function"
    },
    {
      "inputs": [],
      "name": "decimals",
      "outputs": [
        {
          "internalType": "uint8",
          "name": "",
          "type": "uint8"
        }
      ],
      "stateMutability": "view",
      "type": "function"
    },
    {
      "inputs": [
        {
          "internalType": "address",
          "name": "spender",
          "type": "address"
        },
        {
          "internalType": "uint256",
          "name": "subtractedValue",
          "type": "uint256"
        }
      ],
      "name": "decreaseAllowance",
      "outputs": [
        {
          "internalType": "bool",
          "name": "",
          "type": "bool"
        }
      ],
      "stateMutability": "nonpayable",
      "type": "function"
    },
    {
      "inputs": [],
      "name": "faucet",
      "outputs": [],
      "stateMutability": "nonpayable",
      "type": "function"
    },
    {
      "inputs": [
        {
          "internalType": "address",
          "name": "spender",
          "type": "address"
        },
        {
          "internalType": "uint256",
          "name": "addedValue",
          "type": "uint256"
        }
      ],
      "name": "increaseAllowance",
      "outputs": [
        {
          "internalType": "bool",
          "name": "",
          "type": "bool"
        }
      ],
      "stateMutability": "nonpayable",
      "type": "function"
    },
    {
      "inputs": [
        {
          "internalType": "address",
          "name": "",
          "type": "address"
        }
      ],
      "name": "lastFaucetClaim",
      "outputs": [
        {
          "internalType": "uint256",
          "name": "",
          "type": "uint256"
        }
      ],
      "stateMutability": "view",
      "type": "function"
    },
    {
      "inputs": [
        {
          "internalType": "address",
          "name": "to",
          "type": "address"
        },
        {
          "internalType": "uint256",
          "name": "amount",
          "type": "uint256"
        }
      ],
      "name": "mint",
      "outputs": [],
      "stateMutability": "nonpayable",
      "type": "function"
    },
    {
      "inputs": [],
      "name": "name",
      "outputs": [
        {
          "internalType": "string",
          "name": "",
          "type": "string"
        }
      ],
      "stateMutability": "view",
      "type": "function"
    },
    {
      "inputs": [],
      "name": "owner",
      "outputs": [
        {
          "internalType": "address",
          "name": "",
          "type": "address"
        }
      ],
      "stateMutability": "view",
      "type": "function"
    },
    {
      "inputs": [],
      "name": "renounceOwnership",
      "outputs": [],
      "stateMutability": "nonpayable",
      "type": "function"
    },
    {
      "inputs": [],
      "name": "symbol",
      "outputs": [
        {
          "internalType": "string",
          "name": "",
          "type": "string"
        }
      ],
      "stateMutability": "view",
      "type": "function"
    },
    {
      "inputs": [],
      "name": "totalSupply",
      "outputs": [
        {
          "internalType": "uint256",
          "name": "",
          "type": "uint256"
        }
      ],
      "stateMutability": "view",
      "type": "function"
    },
    {
      "inputs": [
        {
          "internalType": "address",
          "name": "to",
          "type": "address"
        },
        {
          "internalType": "uint256",
          "name": "amount",
          "type": "uint256"
        }
      ],
      "name": "transfer",
      "outputs": [
        {
          "internalType": "bool",
          "name": "",
          "type": "bool"
        }
      ],
      "stateMutability": "nonpayable",
      "type": "function"
    },
    {
      "inputs": [
        {
          "internalType": "address",
          "name": "from",
          "type": "address"
        },
        {
          "internalType": "address",
          "name": "to",
          "type": "address"
        },
        {
          "internalType": "uint256",
          "name": "amount",
          "type": "uint256"
        }
      ],
      "name": "transferFrom",
      "outputs": [
        {
          "internalType": "bool",
          "name": "",
          "type": "bool"
        }
      ],
      "stateMutability": "nonpayable",
      "type": "function"
    },
    {
      "inputs": [
        {
          "internalType": "address",
          "name": "newOwner",
          "type": "address"
        }
      ],
      "name": "transferOwnership",
      "outputs": [],
      "stateMutability": "nonpayable",
      "type": "function"
    }
  ],
  "bytecode": "0x60806040523480156200001157600080fd5b506040518060400160405280601281526020017115195cdd08109a5e985c9c99481099585cdd60721b815250604051806040016040528060038152602001623a212160e91b81525081600390816200006a919062000278565b50600462000079828262000278565b5050506200009662000090620000b360201b60201c565b620000b7565b620000ad336a084595161401484a00000062000109565b6200036c565b3390565b600580546001600160a01b038381166001600160a01b0319831681179093556040519116919082907f8be0079c531659141344cd1fd0a4f28419497f9722a3daafe3b4186f6b6457e090600090a35050565b6001600160a01b038216620001645760405162461bcd60e51b815260206004820152601f60248201527f45524332303a206d696e7420746f20746865207a65726f206164647265737300604482015260640160405180910390fd5b806002600082825462000178919062000344565b90915550506001600160a01b038216600081815260208181526040808320805486019055518481527fddf252ad1be2c89b69c2b068fc378daa952ba7f163c4a11628f55a4df523b3ef910160405180910390a35050565b505050565b634e487b7160e01b600052604160045260246000fd5b600181811c90821680620001ff57607f821691505b6020821081036200022057634e487b7160e01b600052602260045260246000fd5b50919050565b601f821115620001cf57600081815260208120601f850160051c810160208610156200024f5750805b601f850160051c820191505b8181101562000270578281556001016200025b565b505050505050565b81516001600160401b03811115620002945762000294620001d4565b620002ac81620002a58454620001ea565b8462000226565b602080601f831160018114620002e45760008415620002cb5750858301515b600019600386901b1c1916600185901b17855562000270565b600085815260208120601f198616915b828110156200031557888601518255948401946001909101908401620002f4565b5085821015620003345787850151600019600388901b60f8161c191681555b5050505050600190811b01905550565b808201808211156200036657634e487b7160e01b600052601160045260246000fd5b92915050565b610c03806200037c6000396000f3fe608060405234801561001057600080fd5b50600436106101215760003560e01c806376697640116100ad578063a457c2d711610071578063a457c2d714610251578063a9059cbb14610264578063dd62ed3e14610277578063de5f72fd1461028a578063f2fde38b1461029257600080fd5b806376697640146101f45780637d1d5d19146102045780638a8772051461020e5780638da5cb5b1461022e57806395d89b411461024957600080fd5b8063313ce567116100f4578063313ce5671461018c578063395093511461019b57806340c10f19146101ae57806370a08231146101c3578063715018a6146101ec57600080fd5b806306fdde0314610126578063095ea7b31461014457806318160ddd1461016757806323b872dd14610179575b600080fd5b61012e6102a5565b60405161013b9190610a4d565b60405180910390f35b610157610152366004610ab7565b610337565b604051901515815260200161013b565b6002545b60405190815260200161013b565b610157610187366004610ae1565b610351565b6040516012815260200161013b565b6101576101a9366004610ab7565b610375565b6101c16101bc366004610ab7565b610397565b005b61016b6101d1366004610b1d565b6001600160a01b031660009081526020819052604090205490565b6101c16103ad565b61016b683635c9adc5dea0000081565b61016b6201518081565b61016b61021c366004610b1d565b60066020526000908152604090205481565b6005546040516001600160a01b03909116815260200161013b565b61012e6103c1565b61015761025f366004610ab7565b6103d0565b610157610272366004610ab7565b610450565b61016b610285366004610b3f565b61045e565b6101c1610489565b6101c16102a0366004610b1d565b610527565b6060600380546102b490610b72565b80601f01602080910402602001604051908101604052809291908181526020018280546102e090610b72565b801561032d5780601f106103025761010080835404028352916020019161032d565b820191906000526020600020905b81548152906001019060200180831161031057829003601f168201915b5050505050905090565b6000336103458185856105a0565b60019150505b92915050565b60003361035f8582856106c4565b61036a85858561073e565b506001949350505050565b600033610345818585610388838361045e565b6103929190610bac565b6105a0565b61039f6108e2565b6103a9828261093c565b5050565b6103b56108e2565b6103bf60006109fb565b565b6060600480546102b490610b72565b600033816103de828661045e565b9050838110156104435760405162461bcd60e51b815260206004820152602560248201527f45524332303a2064656372656173656420616c6c6f77616e63652062656c6f77604482015264207a65726f60d81b60648201526084015b60405180910390fd5b61036a82868684036105a0565b60003361034581858561073e565b6001600160a01b03918216600090815260016020908152604080832093909416825291909152205490565b336000908152600660205260409020546104a7906201518090610bac565b4210156105025760405162461bcd60e51b815260206004820152602360248201527f5761697420323420686f757273206265747765656e2066617563657420636c61604482015262696d7360e81b606482015260840161043a565b3360008181526006602052604090204290556103bf90683635c9adc5dea0000061093c565b61052f6108e2565b6001600160a01b0381166105945760405162461bcd60e51b815260206004820152602660248201527f4f776e61626c653a206e6577206f776e657220697320746865207a65726f206160448201526564647265737360d01b606482015260840161043a565b61059d816109fb565b50565b6001600160a01b0383166106025760405162461bcd60e51b8152602060048201526024808201527f45524332303a20617070726f76652066726f6d20746865207a65726f206164646044820152637265737360e01b606482015260840161043a565b6001600160a01b0382166106635760405162461bcd60e51b815260206004820152602260248201527f45524332303a20617070726f766520746f20746865207a65726f206164647265604482015261737360f01b606482015260840161043a565b6001600160a01b0383811660008181526001602090815260408083209487168084529482529182902085905590518481527f8c5be1e5ebec7d5bd14f71427d1e84f3dd0314c0f7b2291e5b200ac8c7c3b925910160405180910390a3505050565b60006106d0848461045e565b90506000198114610738578181101561072b5760405162461bcd60e51b815260206004820152601d60248201527f45524332303a20696e73756666696369656e7420616c6c6f77616e6365000000604482015260640161043a565b61073884848484036105a0565b50505050565b6001600160a01b0383166107a25760405162461bcd60e51b815260206004820152602560248201527f45524332303a207472616e736665722066726f6d20746865207a65726f206164604482015264647265737360d81b606482015260840161043a565b6001600160a01b0382166108045760405162461bcd60e51b815260206004820152602360248201527f45524332303a207472616e7366657220746f20746865207a65726f206164647260448201526265737360e81b606482015260840161043a565b6001600160a01b0383166000908152602081905260409020548181101561087c5760405162461bcd60e51b815260206004820152602660248201527f45524332303a207472616e7366657220616d6f756e7420657863656564732062604482015265616c616e636560d01b606482015260840161043a565b6001600160a01b03848116600081815260208181526040808320878703905593871680835291849020805487019055925185815290927fddf252ad1be2c89b69c2b068fc378daa952ba7f163c4a11628f55a4df523b3ef910160405180910390a3610738565b6005546001600160a01b031633146103bf5760405162461bcd60e51b815260206004820181905260248201527f4f776e61626c653a2063616c6c6572206973206e6f7420746865206f776e6572604482015260640161043a565b6001600160a01b0382166109925760405162461bcd60e51b815260206004820152601f60248201527f45524332303a206d696e7420746f20746865207a65726f206164647265737300604482015260640161043a565b80600260008282546109a49190610bac565b90915550506001600160a01b038216600081815260208181526040808320805486019055518481527fddf252ad1be2c89b69c2b068fc378daa952ba7f163c4a11628f55a4df523b3ef910160405180910390a35050565b600580546001600160a01b038381166001600160a01b0319831681179093556040519116919082907f8be0079c531659141344cd1fd0a4f28419497f9722a3daafe3b4186f6b6457e090600090a35050565b600060208083528351808285015260005b81811015610a7a57858101830151858201604001528201610a5e565b506000604082860101526040601f19601f8301168501019250505092915050565b80356001600160a01b0381168114610ab257600080fd5b919050565b60008060408385031215610aca57600080fd5b610ad383610a9b565b946020939093013593505050565b600080600060608486031215610af657600080fd5b610aff84610a9b565b9250610b0d60208501610a9b565b9150604084013590509250925092565b600060208284031215610b2f57600080fd5b610b3882610a9b565b9392505050565b60008060408385031215610b5257600080fd5b610b5b83610a9b565b9150610b6960208401610a9b565b90509250929050565b600181811c90821680610b8657607f821691505b602082108103610ba657634e487b7160e01b600052602260045260246000fd5b50919050565b8082018082111561034b57634e487b7160e01b600052601160045260246000fdfea264697066735822122079c9a94940021e45f46adfe34294632a2476341a88edb126f2f1a29f67c5da9c64736f6c63430008140033",
  "linkReferences": {},
  "deployedLinkReferences": {}
}